{
  "address": "0x07eABb7A512f6f8383b582419F41Dea34F552615",
  "abi": [
    {
      "anonymous": false,
      "inputs": [
        {
          "indexed": true,
          "internalType": "address",
          "name": "recipient",
          "type": "address"
        },
        {
          "indexed": true,
          "internalType": "bytes32",
          "name": "dataHash",
          "type": "bytes32"
        },
        {
          "indexed": false,
          "internalType": "string",
          "name": "swapType",
          "type": "string"
        },
        {
          "indexed": false,
          "internalType": "uint256",
          "name": "exchange",
          "type": "uint256"
        }
      ],
      "name": "swapClaimed",
      "type": "event"
    },
    {
      "anonymous": false,
      "inputs": [
        {
          "indexed": true,
          "internalType": "address",
          "name": "recipient",
          "type": "address"
        },
        {
          "indexed": true,
          "internalType": "bytes32",
          "name": "bscTxHash",
          "type": "bytes32"
        },
        {
          "indexed": true,
          "internalType": "bytes32",
          "name": "dataHash",
          "type": "bytes32"
        },
        {
          "indexed": false,
          "internalType": "string",
          "name": "swapType",
          "type": "string"
        },
        {
          "indexed": false,
          "internalType": "uint256",
          "name": "fee",
          "type": "uint256"
        },
        {
          "indexed": false,
          "internalType": "uint256",
          "name": "exchange",
          "type": "uint256"
        }
      ],
      "name": "swapFilled",
      "type": "event"
    },
    {
      "anonymous": false,
      "inputs": [
        {
          "indexed": true,
          "internalType": "address",
          "name": "spender",
          "type": "address"
        },
        {
          "indexed": true,
          "internalType": "bytes32",
          "name": "dataHash",
          "type": "bytes32"
        },
        {
          "indexed": false,
          "internalType": "string",
          "name": "swapType",
          "type": "string"
        },
        {
          "indexed": false,
          "internalType": "string",
          "name": "base",
          "type": "string"
        },
        {
          "indexed": false,
          "internalType": "string",
          "name": "quote",
          "type": "string"
        },
        {
          "indexed": false,
          "internalType": "uint256",
          "name": "amount",
          "type": "uint256"
        },
        {
          "indexed": false,
          "internalType": "uint256",
          "name": "fee",
          "type": "uint256"
        },
        {
          "indexed": false,
          "internalType": "uint256",
          "name": "exchange",
          "type": "uint256"
        },
        {
          "indexed": false,
          "internalType": "uint256",
          "name": "nonce",
          "type": "uint256"
        },
        {
          "indexed": false,
          "internalType": "uint256",
          "name": "deadline",
          "type": "uint256"
        }
      ],
      "name": "swapStarted",
      "type": "event"
    },
    {
      "inputs": [
        {
          "internalType": "bytes32",
          "name": "dataHash",
          "type": "bytes32"
        }
      ],
      "name": "claimMTS2TOTMPegIn",
      "outputs": [],
      "stateMutability": "nonpayable",
      "type": "function"
    },
    {
      "inputs": [],
      "name": "domain",
      "outputs": [
        {
          "internalType": "string",
          "name": "name",
          "type": "string"
        },
        {
          "internalType": "string",
          "name": "version",
          "type": "string"
        },
        {
          "internalType": "uint256",
          "name": "chainId",
          "type": "uint256"
        },
        {
          "internalType": "address",
          "name": "verifyingContract",
          "type": "address"
        }
      ],
      "stateMutability": "view",
      "type": "function"
    },
    {
      "inputs": [
        {
          "internalType": "address",
          "name": "recipient",
          "type": "address"
        },
        {
          "internalType": "bytes32",
          "name": "dataHash",
          "type": "bytes32"
        },
        {
          "internalType": "bytes32",
          "name": "bscTxHash",
          "type": "bytes32"
        },
        {
          "internalType": "string",
          "name": "swapType",
          "type": "string"
        },
        {
          "internalType": "uint256",
          "name": "fee",
          "type": "uint256"
        },
        {
          "internalType": "uint256",
          "name": "exchange",
          "type": "uint256"
        }
      ],
      "name": "fillMTS2TOTMPegIn",
      "outputs": [],
      "stateMutability": "nonpayable",
      "type": "function"
    },
    {
      "inputs": [],
      "name": "metisBridgeAgentImpl",
      "outputs": [
        {
          "internalType": "address",
          "name": "",
          "type": "address"
        }
      ],
      "stateMutability": "view",
      "type": "function"
    },
    {
      "inputs": [],
      "name": "mtsBalance",
      "outputs": [
        {
          "internalType": "uint256",
          "name": "",
          "type": "uint256"
        }
      ],
      "stateMutability": "view",
      "type": "function"
    },
    {
      "inputs": [],
      "name": "mtsWithdraw",
      "outputs": [],
      "stateMutability": "nonpayable",
      "type": "function"
    },
    {
      "inputs": [],
      "name": "owner",
      "outputs": [
        {
          "internalType": "address payable",
          "name": "",
          "type": "address"
        }
      ],
      "stateMutability": "view",
      "type": "function"
    },
    {
      "inputs": [
        {
          "components": [
            {
              "internalType": "string",
              "name": "swapType",
              "type": "string"
            },
            {
              "internalType": "string",
              "name": "base",
              "type": "string"
            },
            {
              "internalType": "string",
              "name": "quote",
              "type": "string"
            },
            {
              "internalType": "uint256",
              "name": "amount",
              "type": "uint256"
            },
            {
              "internalType": "uint256",
              "name": "fee",
              "type": "uint256"
            },
            {
              "internalType": "uint256",
              "name": "exchange",
              "type": "uint256"
            },
            {
              "internalType": "uint256",
              "name": "nonce",
              "type": "uint256"
            },
            {
              "internalType": "uint256",
              "name": "deadline",
              "type": "uint256"
            },
            {
              "internalType": "address",
              "name": "account",
              "type": "address"
            }
          ],
          "internalType": "struct IMessageStructure.Message",
          "name": "message",
          "type": "tuple"
        },
        {
          "internalType": "bytes",
          "name": "signature",
          "type": "bytes"
        }
      ],
      "name": "pegInMTS2TOTM",
      "outputs": [],
      "stateMutability": "payable",
      "type": "function"
    },
    {
      "inputs": [],
      "name": "peggedTotemTokenProxy",
      "outputs": [
        {
          "internalType": "address",
          "name": "",
          "type": "address"
        }
      ],
      "stateMutability": "view",
      "type": "function"
    },
    {
      "inputs": [],
      "name": "proxyAdmin",
      "outputs": [
        {
          "internalType": "address",
          "name": "",
          "type": "address"
        }
      ],
      "stateMutability": "view",
      "type": "function"
    },
    {
      "inputs": [
        {
          "internalType": "address",
          "name": "account",
          "type": "address"
        },
        {
          "internalType": "bytes32",
          "name": "dataHash",
          "type": "bytes32"
        },
        {
          "internalType": "bool",
          "name": "claimStat",
          "type": "bool"
        }
      ],
      "name": "setClaim",
      "outputs": [],
      "stateMutability": "nonpayable",
      "type": "function"
    },
    {
      "inputs": [
        {
          "internalType": "address",
          "name": "account",
          "type": "address"
        },
        {
          "internalType": "bytes32",
          "name": "dataHash",
          "type": "bytes32"
        },
        {
          "internalType": "bool",
          "name": "fillStat",
          "type": "bool"
        }
      ],
      "name": "setFill",
      "outputs": [],
      "stateMutability": "nonpayable",
      "type": "function"
    },
    {
      "inputs": [
        {
          "internalType": "address",
          "name": "account",
          "type": "address"
        },
        {
          "internalType": "uint256",
          "name": "nonce",
          "type": "uint256"
        }
      ],
      "name": "setNonce",
      "outputs": [],
      "stateMutability": "nonpayable",
      "type": "function"
    },
    {
      "inputs": [
        {
          "internalType": "address",
          "name": "",
          "type": "address"
        },
        {
          "internalType": "bytes32",
          "name": "",
          "type": "bytes32"
        }
      ],
      "name": "swapDataMap",
      "outputs": [
        {
          "internalType": "bytes32",
          "name": "txHash",
          "type": "bytes32"
        },
        {
          "internalType": "uint256",
          "name": "nonce",
          "type": "uint256"
        },
        {
          "internalType": "uint256",
          "name": "exchange",
          "type": "uint256"
        },
        {
          "internalType": "string",
          "name": "swapType",
          "type": "string"
        },
        {
          "internalType": "bool",
          "name": "isFilled",
          "type": "bool"
        },
        {
          "internalType": "bool",
          "name": "isClaimed",
          "type": "bool"
        }
      ],
      "stateMutability": "view",
      "type": "function"
    },
    {
      "inputs": [
        {
          "internalType": "address",
          "name": "",
          "type": "address"
        }
      ],
      "name": "swapNonce",
      "outputs": [
        {
          "internalType": "uint256",
          "name": "",
          "type": "uint256"
        }
      ],
      "stateMutability": "view",
      "type": "function"
    },
    {
      "inputs": [],
      "name": "upgradeEnabled",
      "outputs": [
        {
          "internalType": "bool",
          "name": "",
          "type": "bool"
        }
      ],
      "stateMutability": "view",
      "type": "function"
    }
  ],
  "transactionHash": "0x0544791493d9a9c5bf83ef16b569ab7b723e20131a42680ad1fe086f538a2132",
  "args": [],
  "solcInputHash": "cdaa94df5d40640b6ba2811ed54caff6",
  "bytecode": "0x608060405234801561001057600080fd5b50611e09806100206000396000f3fe6080604052600436106100f35760003560e01c8063793ce93e1161008a5780639afad3ed116100595780639afad3ed1461029e578063a6936d5c146102be578063a7d6dc1b146102de578063c2fb26a61461031057600080fd5b8063793ce93e14610227578063884034ad1461023a5780638cf0e21e1461024d5780638da5cb5b1461027e57600080fd5b8063638ff912116100c6578063638ff9121461019757806364955f0c146101ac5780636dbf4547146101cc5780636dfa08de1461020757600080fd5b806318b4f71b146100f85780631d79f3251461011a5780633ced6d081461013a5780633e47158c1461015a575b600080fd5b34801561010457600080fd5b506101186101133660046117c5565b610335565b005b34801561012657600080fd5b50610118610135366004611805565b6103af565b34801561014657600080fd5b5061011861015536600461182f565b6103fe565b34801561016657600080fd5b5060345461017a906001600160a01b031681565b6040516001600160a01b0390911681526020015b60405180910390f35b3480156101a357600080fd5b50610118610582565b3480156101b857600080fd5b506101186101c73660046117c5565b6105f0565b3480156101d857600080fd5b506101f96101e7366004611848565b603b6020526000908152604090205481565b60405190815260200161018e565b34801561021357600080fd5b50610118610222366004611930565b61065b565b6101186102353660046119a3565b61089f565b34801561024657600080fd5b50476101f9565b34801561025957600080fd5b5060365461026e90600160a01b900460ff1681565b604051901515815260200161018e565b34801561028a57600080fd5b5060365461017a906001600160a01b031681565b3480156102aa57600080fd5b5060335461017a906001600160a01b031681565b3480156102ca57600080fd5b5060355461017a906001600160a01b031681565b3480156102ea57600080fd5b506102fe6102f9366004611805565b610dcc565b60405161018e96959493929190611b1e565b34801561031c57600080fd5b50610325610ea3565b60405161018e9493929190611b5d565b6036546001600160a01b0316336001600160a01b0316146103715760405162461bcd60e51b815260040161036890611ba4565b60405180910390fd5b6001600160a01b039092166000908152603c602090815260408083209383529290522060040180549115156101000261ff0019909216919091179055565b6036546001600160a01b0316336001600160a01b0316146103e25760405162461bcd60e51b815260040161036890611ba4565b6001600160a01b039091166000908152603b6020526040902055565b336000908152603c602090815260408083208484529091529020600101546104615760405162461bcd60e51b81526020600482015260166024820152751c995c5d595cdd081b9bdd081c9959da5cdd195c995960521b6044820152606401610368565b336000908152603c60209081526040808320848452909152902060040154610100900460ff16156104d45760405162461bcd60e51b815260206004820152601760248201527f7265717565737420616c726561647920636c61696d65640000000000000000006044820152606401610368565b336000818152603c60209081526040808320858452909152902060028101546004909101805461ff001916610100179055603554909161051e916001600160a01b03169083610fd9565b336000818152603c6020908152604080832086845290915290819020600281015491518593927fc4da37a5927e9eef1c8037e3357e69b90e1b899efe166d7692425c19b4ff25a3926105769260039091019190611c24565b60405180910390a35050565b6036546001600160a01b0316336001600160a01b0316146105b55760405162461bcd60e51b815260040161036890611ba4565b6036546001600160a01b03166108fc476040518115909202916000818181858888f193505050501580156105ed573d6000803e3d6000fd5b50565b6036546001600160a01b0316336001600160a01b0316146106235760405162461bcd60e51b815260040161036890611ba4565b6001600160a01b03929092166000908152603c6020908152604080832093835292905220600401805460ff1916911515919091179055565b6036546001600160a01b0316336001600160a01b03161461068e5760405162461bcd60e51b815260040161036890611ba4565b836106ca5760405162461bcd60e51b815260206004820152600c60248201526b0eee4dedcce40e8f0d0c2e6d60a31b6044820152606401610368565b6001600160a01b0386166000908152603c602090815260408083208884529091529020600101546107365760405162461bcd60e51b81526020600482015260166024820152751c995c5d595cdd081b9bdd081c9959da5cdd195c995960521b6044820152606401610368565b6001600160a01b0386166000908152603c6020908152604080832088845290915290206004015460ff16156107a65760405162461bcd60e51b81526020600482015260166024820152751c995c5d595cdd08185b1c9958591e48199a5b1b195960521b6044820152606401610368565b6035546040516308934a5f60e31b8152306004820152602481018390526001600160a01b039091169063449a52f8906044016020604051808303816000875af11580156107f7573d6000803e3d6000fd5b505050506040513d601f19601f8201168201806040525081019061081b9190611cd4565b506001600160a01b0386166000818152603c602090815260408083208984529091529081902086815560048101805460ff1916600117905560020183905551869186917f763c79ae59cfda0e593247e48708dc5d5f033caae09822b9ec6ab8e5ebd5dfb19061088f90889088908890611cf1565b60405180910390a4505050505050565b333b156108ee5760405162461bcd60e51b815260206004820152601f60248201527f636f6e7472616374206973206e6f7420616c6c6f77656420746f2073776170006044820152606401610368565b33321461093d5760405162461bcd60e51b815260206004820152601c60248201527f6e6f2070726f787920636f6e747261637420697320616c6c6f776564000000006044820152606401610368565b81606001513410156109865760405162461bcd60e51b81526020600482015260126024820152711ddc9bdb99c81b595d1a5cc8185b5bdd5b9d60721b6044820152606401610368565b6101008201516001600160a01b0316336001600160a01b0316146109fe5760405162461bcd60e51b815260206004820152602960248201527f75736572206973206e6f7420616c6c6f77656420746f207573652074686973206044820152687369676e617475726560b81b6064820152608401610368565b603654604080516080810190915260378054610b67936001600160a01b0316928692909182908290610a2f90611be9565b80601f0160208091040260200160405190810160405280929190818152602001828054610a5b90611be9565b8015610aa85780601f10610a7d57610100808354040283529160200191610aa8565b820191906000526020600020905b815481529060010190602001808311610a8b57829003601f168201915b50505050508152602001600182018054610ac190611be9565b80601f0160208091040260200160405190810160405280929190818152602001828054610aed90611be9565b8015610b3a5780601f10610b0f57610100808354040283529160200191610b3a565b820191906000526020600020905b815481529060010190602001808311610b1d57829003601f168201915b5050509183525050600282015460208201526003909101546001600160a01b031660409091015284611030565b610ba75760405162461bcd60e51b81526020600482015260116024820152702bb937b733903a3930b739b0b1ba34b7b760791b6044820152606401610368565b428260e001511015610bf15760405162461bcd60e51b8152602060048201526013602482015272191958591b1a5b99481a185cc81c185cdcd959606a1b6044820152606401610368565b336000908152603b6020526040902054610c0c906001611d16565b8260c0015114610c4c5760405162461bcd60e51b815260206004820152600b60248201526a77726f6e67206e6f6e636560a81b6044820152606401610368565b6040805160c08082018352600080835290850151602083015260a08086015193830193909352845160608301526080820181905291810182905290610c90846110be565b6101008501516001600160a01b03166000908152603c6020908152604080832084845282529182902085518155818601516001820155918501516002830155606085015180519394508593610ceb9260038501920190611702565b5060808201516004909101805460a09093015115156101000261ff00199215159290921661ffff199093169290921717905560c0840151603b6000610d2d3390565b6001600160a01b03166001600160a01b0316815260200190815260200160002081905550808461010001516001600160a01b03167fddbc9ff29a9285afc6faa85774fd182b7d957a0096a14716b88d020717071b1c86600001518760200151886040015189606001518a608001518b60a001518c60c001518d60e00151604051610dbe989796959493929190611d3c565b60405180910390a350505050565b603c60205281600052604060002060205280600052604060002060009150915050806000015490806001015490806002015490806003018054610e0e90611be9565b80601f0160208091040260200160405190810160405280929190818152602001828054610e3a90611be9565b8015610e875780601f10610e5c57610100808354040283529160200191610e87565b820191906000526020600020905b815481529060010190602001808311610e6a57829003601f168201915b5050506004909301549192505060ff8082169161010090041686565b603780548190610eb290611be9565b80601f0160208091040260200160405190810160405280929190818152602001828054610ede90611be9565b8015610f2b5780601f10610f0057610100808354040283529160200191610f2b565b820191906000526020600020905b815481529060010190602001808311610f0e57829003601f168201915b505050505090806001018054610f4090611be9565b80601f0160208091040260200160405190810160405280929190818152602001828054610f6c90611be9565b8015610fb95780601f10610f8e57610100808354040283529160200191610fb9565b820191906000526020600020905b815481529060010190602001808311610f9c57829003601f168201915b5050505060028301546003909301549192916001600160a01b0316905084565b604080516001600160a01b038416602482015260448082018490528251808303909101815260649091019091526020810180516001600160e01b031663a9059cbb60e01b17905261102b9084906111e0565b505050565b60008061103c846112b2565b9050600061104986611370565b90506000611092838360405161190160f01b6020820152602281018390526042810182905260009060620160405160208183030381529060405280519060200120905092915050565b9050876001600160a01b03166110a88287611495565b6001600160a01b03161498975050505050505050565b80516040516000916110d291602001611da4565b6040516020818303038152906040528051906020012082602001516040516020016110fd9190611da4565b6040516020818303038152906040528051906020012083604001516040516020016111289190611da4565b60405160208183030381529060405280519060200120846060015185608001518660a001518760c001518860e001518961010001516040516020016111c39998979695949392919098895260208901979097526040880195909552606080880194909452608087019290925260a086015260c085015260e08401919091521b6bffffffffffffffffffffffff19166101008201526101140190565b604051602081830303815290604052805190602001209050919050565b6000611235826040518060400160405280602081526020017f5361666545524332303a206c6f772d6c6576656c2063616c6c206661696c6564815250856001600160a01b03166115149092919063ffffffff16565b80519091501561102b57808060200190518101906112539190611cd4565b61102b5760405162461bcd60e51b815260206004820152602a60248201527f5361666545524332303a204552433230206f7065726174696f6e20646964206e6044820152691bdd081cdd58d8d9595960b21b6064820152608401610368565b60007f8b73c3c69bb8fe3d512ecc4cf759cc79239f7b179b0ffacaa9a75d522b39400f82600001516040516020016112ea9190611db7565b6040516020818303038152906040528051906020012083602001516040516020016113159190611db7565b60405160208183030381529060405280519060200120846040015185606001516040516020016111c39594939291909485526020850193909352604084019190915260608301526001600160a01b0316608082015260a00190565b60007fa38a4acf6d805ae59b01b4ab44ebfd2aab922697d3120590e1920d98a01ee28382600001516040516020016113a89190611db7565b6040516020818303038152906040528051906020012083610100015184602001516040516020016113d99190611db7565b6040516020818303038152906040528051906020012085604001516040516020016114049190611db7565b60405160208183030381529060405280519060200120866080015187606001518860a001518960e001518a60c001516040516020016111c39a99989796959493929190998a5260208a01989098526001600160a01b039690961660408901526060880194909452608087019290925260a086015260c085015260e08401526101008301526101208201526101400190565b6000806000806114a48561152d565b6040805160008152602081018083528b905260ff8316918101919091526060810184905260808101839052929550909350915060019060a0016020604051602081039080840390855afa1580156114ff573d6000803e3d6000fd5b5050604051601f190151979650505050505050565b606061152384846000856115a1565b90505b9392505050565b600080600083516041146115835760405162461bcd60e51b815260206004820152601860248201527f696e76616c6964207369676e6174757265206c656e67746800000000000000006044820152606401610368565b50505060208101516040820151606090920151909260009190911a90565b6060824710156116025760405162461bcd60e51b815260206004820152602660248201527f416464726573733a20696e73756666696369656e742062616c616e636520666f6044820152651c8818d85b1b60d21b6064820152608401610368565b843b6116505760405162461bcd60e51b815260206004820152601d60248201527f416464726573733a2063616c6c20746f206e6f6e2d636f6e74726163740000006044820152606401610368565b600080866001600160a01b0316858760405161166c9190611db7565b60006040518083038185875af1925050503d80600081146116a9576040519150601f19603f3d011682016040523d82523d6000602084013e6116ae565b606091505b50915091506116be8282866116c9565b979650505050505050565b606083156116d8575081611526565b8251156116e85782518084602001fd5b8160405162461bcd60e51b81526004016103689190611da4565b82805461170e90611be9565b90600052602060002090601f0160209004810192826117305760008555611776565b82601f1061174957805160ff1916838001178555611776565b82800160010185558215611776579182015b8281111561177657825182559160200191906001019061175b565b50611782929150611786565b5090565b5b808211156117825760008155600101611787565b80356001600160a01b03811681146117b257600080fd5b919050565b80151581146105ed57600080fd5b6000806000606084860312156117da57600080fd5b6117e38461179b565b92506020840135915060408401356117fa816117b7565b809150509250925092565b6000806040838503121561181857600080fd5b6118218361179b565b946020939093013593505050565b60006020828403121561184157600080fd5b5035919050565b60006020828403121561185a57600080fd5b6115268261179b565b634e487b7160e01b600052604160045260246000fd5b604051610120810167ffffffffffffffff8111828210171561189d5761189d611863565b60405290565b600082601f8301126118b457600080fd5b813567ffffffffffffffff808211156118cf576118cf611863565b604051601f8301601f19908116603f011681019082821181831017156118f7576118f7611863565b8160405283815286602085880101111561191057600080fd5b836020870160208301376000602085830101528094505050505092915050565b60008060008060008060c0878903121561194957600080fd5b6119528761179b565b95506020870135945060408701359350606087013567ffffffffffffffff81111561197c57600080fd5b61198889828a016118a3565b9350506080870135915060a087013590509295509295509295565b600080604083850312156119b657600080fd5b823567ffffffffffffffff808211156119ce57600080fd5b9084019061012082870312156119e357600080fd5b6119eb611879565b8235828111156119fa57600080fd5b611a06888286016118a3565b825250602083013582811115611a1b57600080fd5b611a27888286016118a3565b602083015250604083013582811115611a3f57600080fd5b611a4b888286016118a3565b604083015250606083013560608201526080830135608082015260a083013560a082015260c083013560c082015260e083013560e0820152610100611a9181850161179b565b9082015293506020850135915080821115611aab57600080fd5b50611ab8858286016118a3565b9150509250929050565b60005b83811015611add578181015183820152602001611ac5565b83811115611aec576000848401525b50505050565b60008151808452611b0a816020860160208601611ac2565b601f01601f19169290920160200192915050565b86815285602082015284604082015260c060608201526000611b4360c0830186611af2565b93151560808301525090151560a090910152949350505050565b608081526000611b706080830187611af2565b8281036020840152611b828187611af2565b604084019590955250506001600160a01b039190911660609091015292915050565b60208082526025908201527f63616e206f6e6c792062652063616c6c6564206279207468652070726f78792060408201526430b236b4b760d91b606082015260800190565b600181811c90821680611bfd57607f821691505b60208210811415611c1e57634e487b7160e01b600052602260045260246000fd5b50919050565b60408152600080845481600182811c915080831680611c4457607f831692505b6020808410821415611c6457634e487b7160e01b86526022600452602486fd5b6040880184905260608801828015611c835760018114611c9457611cbf565b60ff19871682528282019750611cbf565b60008c81526020902060005b87811015611cb957815484820152908601908401611ca0565b83019850505b50509690960196909652509095945050505050565b600060208284031215611ce657600080fd5b8151611526816117b7565b606081526000611d046060830186611af2565b60208301949094525060400152919050565b60008219821115611d3757634e487b7160e01b600052601160045260246000fd5b500190565b6000610100808352611d508184018c611af2565b90508281036020840152611d64818b611af2565b90508281036040840152611d78818a611af2565b60608401989098525050608081019490945260a084019290925260c083015260e0909101529392505050565b6020815260006115266020830184611af2565b60008251611dc9818460208701611ac2565b919091019291505056fea26469706673582212205884f3dee3854a892a6d85ea1c8e1f64f28b9f49e63e0ee83689b6e976a2e69664736f6c634300080b0033",
  "devdoc": {
    "kind": "dev",
    "methods": {},
    "version": 1
  },
  "userdoc": {
    "kind": "user",
    "methods": {},
    "version": 1
  },
  "storageLayout": {
    "storage": [
      {
        "astId": 413,
        "contract": "contracts/MetisAgent/MetisBridgeAgentImpl.sol:MetisBridgeAgentImpl",
        "label": "_initialized",
        "offset": 0,
        "slot": "0",
        "type": "t_bool"
      },
      {
        "astId": 416,
        "contract": "contracts/MetisAgent/MetisBridgeAgentImpl.sol:MetisBridgeAgentImpl",
        "label": "_initializing",
        "offset": 1,
        "slot": "0",
        "type": "t_bool"
      },
      {
        "astId": 1641,
        "contract": "contracts/MetisAgent/MetisBridgeAgentImpl.sol:MetisBridgeAgentImpl",
        "label": "__gap",
        "offset": 0,
        "slot": "1",
        "type": "t_array(t_uint256)50_storage"
      },
      {
        "astId": 3226,
        "contract": "contracts/MetisAgent/MetisBridgeAgentImpl.sol:MetisBridgeAgentImpl",
        "label": "metisBridgeAgentImpl",
        "offset": 0,
        "slot": "51",
        "type": "t_address"
      },
      {
        "astId": 3228,
        "contract": "contracts/MetisAgent/MetisBridgeAgentImpl.sol:MetisBridgeAgentImpl",
        "label": "proxyAdmin",
        "offset": 0,
        "slot": "52",
        "type": "t_address"
      },
      {
        "astId": 3230,
        "contract": "contracts/MetisAgent/MetisBridgeAgentImpl.sol:MetisBridgeAgentImpl",
        "label": "peggedTotemTokenProxy",
        "offset": 0,
        "slot": "53",
        "type": "t_address"
      },
      {
        "astId": 3232,
        "contract": "contracts/MetisAgent/MetisBridgeAgentImpl.sol:MetisBridgeAgentImpl",
        "label": "owner",
        "offset": 0,
        "slot": "54",
        "type": "t_address_payable"
      },
      {
        "astId": 3234,
        "contract": "contracts/MetisAgent/MetisBridgeAgentImpl.sol:MetisBridgeAgentImpl",
        "label": "upgradeEnabled",
        "offset": 20,
        "slot": "54",
        "type": "t_bool"
      },
      {
        "astId": 3237,
        "contract": "contracts/MetisAgent/MetisBridgeAgentImpl.sol:MetisBridgeAgentImpl",
        "label": "domain",
        "offset": 0,
        "slot": "55",
        "type": "t_struct(DomainSeparator)4020_storage"
      },
      {
        "astId": 3241,
        "contract": "contracts/MetisAgent/MetisBridgeAgentImpl.sol:MetisBridgeAgentImpl",
        "label": "swapNonce",
        "offset": 0,
        "slot": "59",
        "type": "t_mapping(t_address,t_uint256)"
      },
      {
        "astId": 3249,
        "contract": "contracts/MetisAgent/MetisBridgeAgentImpl.sol:MetisBridgeAgentImpl",
        "label": "swapDataMap",
        "offset": 0,
        "slot": "60",
        "type": "t_mapping(t_address,t_mapping(t_bytes32,t_struct(SwapData)3224_storage))"
      }
    ],
    "types": {
      "t_address": {
        "encoding": "inplace",
        "label": "address",
        "numberOfBytes": "20"
      },
      "t_address_payable": {
        "encoding": "inplace",
        "label": "address payable",
        "numberOfBytes": "20"
      },
      "t_array(t_uint256)50_storage": {
        "base": "t_uint256",
        "encoding": "inplace",
        "label": "uint256[50]",
        "numberOfBytes": "1600"
      },
      "t_bool": {
        "encoding": "inplace",
        "label": "bool",
        "numberOfBytes": "1"
      },
      "t_bytes32": {
        "encoding": "inplace",
        "label": "bytes32",
        "numberOfBytes": "32"
      },
      "t_mapping(t_address,t_mapping(t_bytes32,t_struct(SwapData)3224_storage))": {
        "encoding": "mapping",
        "key": "t_address",
        "label": "mapping(address => mapping(bytes32 => struct MetisBridgeAgentStorageStructure.SwapData))",
        "numberOfBytes": "32",
        "value": "t_mapping(t_bytes32,t_struct(SwapData)3224_storage)"
      },
      "t_mapping(t_address,t_uint256)": {
        "encoding": "mapping",
        "key": "t_address",
        "label": "mapping(address => uint256)",
        "numberOfBytes": "32",
        "value": "t_uint256"
      },
      "t_mapping(t_bytes32,t_struct(SwapData)3224_storage)": {
        "encoding": "mapping",
        "key": "t_bytes32",
        "label": "mapping(bytes32 => struct MetisBridgeAgentStorageStructure.SwapData)",
        "numberOfBytes": "32",
        "value": "t_struct(SwapData)3224_storage"
      },
      "t_string_storage": {
        "encoding": "bytes",
        "label": "string",
        "numberOfBytes": "32"
      },
      "t_struct(DomainSeparator)4020_storage": {
        "encoding": "inplace",
        "label": "struct IMessageStructure.DomainSeparator",
        "members": [
          {
            "astId": 4013,
            "contract": "contracts/MetisAgent/MetisBridgeAgentImpl.sol:MetisBridgeAgentImpl",
            "label": "name",
            "offset": 0,
            "slot": "0",
            "type": "t_string_storage"
          },
          {
            "astId": 4015,
            "contract": "contracts/MetisAgent/MetisBridgeAgentImpl.sol:MetisBridgeAgentImpl",
            "label": "version",
            "offset": 0,
            "slot": "1",
            "type": "t_string_storage"
          },
          {
            "astId": 4017,
            "contract": "contracts/MetisAgent/MetisBridgeAgentImpl.sol:MetisBridgeAgentImpl",
            "label": "chainId",
            "offset": 0,
            "slot": "2",
            "type": "t_uint256"
          },
          {
            "astId": 4019,
            "contract": "contracts/MetisAgent/MetisBridgeAgentImpl.sol:MetisBridgeAgentImpl",
            "label": "verifyingContract",
            "offset": 0,
            "slot": "3",
            "type": "t_address"
          }
        ],
        "numberOfBytes": "128"
      },
      "t_struct(SwapData)3224_storage": {
        "encoding": "inplace",
        "label": "struct MetisBridgeAgentStorageStructure.SwapData",
        "members": [
          {
            "astId": 3213,
            "contract": "contracts/MetisAgent/MetisBridgeAgentImpl.sol:MetisBridgeAgentImpl",
            "label": "txHash",
            "offset": 0,
            "slot": "0",
            "type": "t_bytes32"
          },
          {
            "astId": 3215,
            "contract": "contracts/MetisAgent/MetisBridgeAgentImpl.sol:MetisBridgeAgentImpl",
            "label": "nonce",
            "offset": 0,
            "slot": "1",
            "type": "t_uint256"
          },
          {
            "astId": 3217,
            "contract": "contracts/MetisAgent/MetisBridgeAgentImpl.sol:MetisBridgeAgentImpl",
            "label": "exchange",
            "offset": 0,
            "slot": "2",
            "type": "t_uint256"
          },
          {
            "astId": 3219,
            "contract": "contracts/MetisAgent/MetisBridgeAgentImpl.sol:MetisBridgeAgentImpl",
            "label": "swapType",
            "offset": 0,
            "slot": "3",
            "type": "t_string_storage"
          },
          {
            "astId": 3221,
            "contract": "contracts/MetisAgent/MetisBridgeAgentImpl.sol:MetisBridgeAgentImpl",
            "label": "isFilled",
            "offset": 0,
            "slot": "4",
            "type": "t_bool"
          },
          {
            "astId": 3223,
            "contract": "contracts/MetisAgent/MetisBridgeAgentImpl.sol:MetisBridgeAgentImpl",
            "label": "isClaimed",
            "offset": 1,
            "slot": "4",
            "type": "t_bool"
          }
        ],
        "numberOfBytes": "160"
      },
      "t_uint256": {
        "encoding": "inplace",
        "label": "uint256",
        "numberOfBytes": "32"
      }
    }
  }
}