{
  "address": "0x7Aa7fe998BCB572B4517d81534418556f2323188",
  "abi": [
    {
      "inputs": [
        {
          "internalType": "address",
          "name": "_proxyAdmin",
          "type": "address"
        }
      ],
      "stateMutability": "nonpayable",
      "type": "constructor"
    },
    {
      "anonymous": false,
      "inputs": [
        {
          "indexed": false,
          "internalType": "address",
          "name": "oldImpl",
          "type": "address"
        },
        {
          "indexed": false,
          "internalType": "address",
          "name": "newImpl",
          "type": "address"
        }
      ],
      "name": "ImplementationUpgraded",
      "type": "event"
    },
    {
      "stateMutability": "payable",
      "type": "fallback"
    },
    {
      "inputs": [],
      "name": "disableUpgrade",
      "outputs": [],
      "stateMutability": "nonpayable",
      "type": "function"
    },
    {
      "inputs": [],
      "name": "domain",
      "outputs": [
        {
          "internalType": "string",
          "name": "name",
          "type": "string"
        },
        {
          "internalType": "string",
          "name": "version",
          "type": "string"
        },
        {
          "internalType": "uint256",
          "name": "chainId",
          "type": "uint256"
        },
        {
          "internalType": "address",
          "name": "verifyingContract",
          "type": "address"
        }
      ],
      "stateMutability": "view",
      "type": "function"
    },
    {
      "inputs": [],
      "name": "enableUpgrade",
      "outputs": [],
      "stateMutability": "nonpayable",
      "type": "function"
    },
    {
      "inputs": [
        {
          "internalType": "string",
          "name": "_name",
          "type": "string"
        },
        {
          "internalType": "string",
          "name": "_version",
          "type": "string"
        },
        {
          "internalType": "address",
          "name": "_peggedTotemTokenProxy",
          "type": "address"
        }
      ],
      "name": "initialize",
      "outputs": [],
      "stateMutability": "nonpayable",
      "type": "function"
    },
    {
      "inputs": [],
      "name": "metisBridgeAgentImpl",
      "outputs": [
        {
          "internalType": "address",
          "name": "",
          "type": "address"
        }
      ],
      "stateMutability": "view",
      "type": "function"
    },
    {
      "inputs": [],
      "name": "owner",
      "outputs": [
        {
          "internalType": "address payable",
          "name": "",
          "type": "address"
        }
      ],
      "stateMutability": "view",
      "type": "function"
    },
    {
      "inputs": [],
      "name": "peggedTotemTokenProxy",
      "outputs": [
        {
          "internalType": "address",
          "name": "",
          "type": "address"
        }
      ],
      "stateMutability": "view",
      "type": "function"
    },
    {
      "inputs": [],
      "name": "proxyAdmin",
      "outputs": [
        {
          "internalType": "address",
          "name": "",
          "type": "address"
        }
      ],
      "stateMutability": "view",
      "type": "function"
    },
    {
      "inputs": [
        {
          "internalType": "address",
          "name": "",
          "type": "address"
        },
        {
          "internalType": "bytes32",
          "name": "",
          "type": "bytes32"
        }
      ],
      "name": "swapDataMap",
      "outputs": [
        {
          "internalType": "bytes32",
          "name": "txHash",
          "type": "bytes32"
        },
        {
          "internalType": "uint256",
          "name": "nonce",
          "type": "uint256"
        },
        {
          "internalType": "uint256",
          "name": "exchange",
          "type": "uint256"
        },
        {
          "internalType": "string",
          "name": "swapType",
          "type": "string"
        },
        {
          "internalType": "bool",
          "name": "isFilled",
          "type": "bool"
        },
        {
          "internalType": "bool",
          "name": "isClaimed",
          "type": "bool"
        }
      ],
      "stateMutability": "view",
      "type": "function"
    },
    {
      "inputs": [
        {
          "internalType": "address",
          "name": "",
          "type": "address"
        }
      ],
      "name": "swapNonce",
      "outputs": [
        {
          "internalType": "uint256",
          "name": "",
          "type": "uint256"
        }
      ],
      "stateMutability": "view",
      "type": "function"
    },
    {
      "inputs": [],
      "name": "upgradeEnabled",
      "outputs": [
        {
          "internalType": "bool",
          "name": "",
          "type": "bool"
        }
      ],
      "stateMutability": "view",
      "type": "function"
    },
    {
      "inputs": [
        {
          "internalType": "address",
          "name": "_newMetisBridgeAgentImpl",
          "type": "address"
        }
      ],
      "name": "upgradeTo",
      "outputs": [],
      "stateMutability": "nonpayable",
      "type": "function"
    },
    {
      "stateMutability": "payable",
      "type": "receive"
    }
  ],
  "transactionHash": "0x083dcfdf6dbbd23f3acb6e4b5e8e865b3b0d51eca99b9044fb838055140db3de",
  "args": [
    "0x199Ba9ad2CE47272cA2EB4e3D9530AEd09AbDB51"
  ],
  "solcInputHash": "cdaa94df5d40640b6ba2811ed54caff6",
  "bytecode": "0x608060405234801561001057600080fd5b50604051610d38380380610d3883398101604081905261002f91610071565b60368054603480546001600160a01b03949094166001600160a01b0319909416939093179092556001600160a81b03199091163317600160a01b1790556100a1565b60006020828403121561008357600080fd5b81516001600160a01b038116811461009a57600080fd5b9392505050565b610c88806100b06000396000f3fe6080604052600436106100ab5760003560e01c80638cf0e21e116100645780638cf0e21e146101d05780638da5cb5b146102015780639afad3ed14610221578063a6936d5c14610241578063a7d6dc1b14610261578063c2fb26a614610293576100b2565b8063077f224a146100ec57806328016f9a1461010e5780633659cfe6146101235780633e47158c1461014357806367fc9138146101805780636dbf454714610195576100b2565b366100b257005b6033546001600160a01b0316806100c857600080fd5b3660008037600080366000845af43d6000803e8080156100e7573d6000f35b3d6000fd5b3480156100f857600080fd5b5061010c6101073660046109f1565b6102b8565b005b34801561011a57600080fd5b5061010c6103c0565b34801561012f57600080fd5b5061010c61013e366004610a65565b610408565b34801561014f57600080fd5b50603454610163906001600160a01b031681565b6040516001600160a01b0390911681526020015b60405180910390f35b34801561018c57600080fd5b5061010c61050b565b3480156101a157600080fd5b506101c26101b0366004610a65565b603b6020526000908152604090205481565b604051908152602001610177565b3480156101dc57600080fd5b506036546101f190600160a01b900460ff1681565b6040519015158152602001610177565b34801561020d57600080fd5b50603654610163906001600160a01b031681565b34801561022d57600080fd5b50603354610163906001600160a01b031681565b34801561024d57600080fd5b50603554610163906001600160a01b031681565b34801561026d57600080fd5b5061028161027c366004610a87565b61054d565b60405161017796959493929190610afe565b34801561029f57600080fd5b506102a8610624565b6040516101779493929190610b3d565b600054610100900460ff16806102d1575060005460ff16155b6102f65760405162461bcd60e51b81526004016102ed90610b84565b60405180910390fd5b600054610100900460ff16158015610318576000805461ffff19166101011790555b6036546001600160a01b0316336001600160a01b03161461034b5760405162461bcd60e51b81526004016102ed90610bd2565b61035361075a565b8351610366906037906020870190610899565b50825161037a906038906020860190610899565b5046603955603a8054306001600160a01b031991821617909155603580549091166001600160a01b03841617905580156103ba576000805461ff00191690555b50505050565b6034546001600160a01b0316336001600160a01b0316146103f35760405162461bcd60e51b81526004016102ed90610bd2565b6036805460ff60a01b1916600160a01b179055565b6036546001600160a01b0316336001600160a01b03161461043b5760405162461bcd60e51b81526004016102ed90610bd2565b603654600160a01b900460ff166104945760405162461bcd60e51b815260206004820152601a60248201527f55706772616465206973206e6f7420656e61626c65642079657400000000000060448201526064016102ed565b6033546001600160a01b03828116911614156104f25760405162461bcd60e51b815260206004820152601d60248201527f497320616c72656164792074686520696d706c656d656e746174696f6e00000060448201526064016102ed565b6104fb816107ce565b506036805460ff60a01b19169055565b6034546001600160a01b0316336001600160a01b03161461053e5760405162461bcd60e51b81526004016102ed90610bd2565b6036805460ff60a01b19169055565b603c6020528160005260406000206020528060005260406000206000915091505080600001549080600101549080600201549080600301805461058f90610c17565b80601f01602080910402602001604051908101604052809291908181526020018280546105bb90610c17565b80156106085780601f106105dd57610100808354040283529160200191610608565b820191906000526020600020905b8154815290600101906020018083116105eb57829003601f168201915b5050506004909301549192505060ff8082169161010090041686565b60378054819061063390610c17565b80601f016020809104026020016040519081016040528092919081815260200182805461065f90610c17565b80156106ac5780601f10610681576101008083540402835291602001916106ac565b820191906000526020600020905b81548152906001019060200180831161068f57829003601f168201915b5050505050908060010180546106c190610c17565b80601f01602080910402602001604051908101604052809291908181526020018280546106ed90610c17565b801561073a5780601f1061070f5761010080835404028352916020019161073a565b820191906000526020600020905b81548152906001019060200180831161071d57829003601f168201915b5050505060028301546003909301549192916001600160a01b0316905084565b600054610100900460ff1680610773575060005460ff16155b61078f5760405162461bcd60e51b81526004016102ed90610b84565b600054610100900460ff161580156107b1576000805461ffff19166101011790555b6107b961082f565b80156107cb576000805461ff00191690555b50565b603380546001600160a01b038381166001600160a01b031983168117909355604080519190921680825260208201939093527f1a5ca99a64512489fd9455e8da426740174107a69292fca0a8b80b08f6f67892910160405180910390a15050565b600054610100900460ff1680610848575060005460ff16155b6108645760405162461bcd60e51b81526004016102ed90610b84565b600054610100900460ff161580156107b9576000805461ffff191661010117905580156107cb576000805461ff001916905550565b8280546108a590610c17565b90600052602060002090601f0160209004810192826108c7576000855561090d565b82601f106108e057805160ff191683800117855561090d565b8280016001018555821561090d579182015b8281111561090d5782518255916020019190600101906108f2565b5061091992915061091d565b5090565b5b80821115610919576000815560010161091e565b634e487b7160e01b600052604160045260246000fd5b600082601f83011261095957600080fd5b813567ffffffffffffffff8082111561097457610974610932565b604051601f8301601f19908116603f0116810190828211818310171561099c5761099c610932565b816040528381528660208588010111156109b557600080fd5b836020870160208301376000602085830101528094505050505092915050565b80356001600160a01b03811681146109ec57600080fd5b919050565b600080600060608486031215610a0657600080fd5b833567ffffffffffffffff80821115610a1e57600080fd5b610a2a87838801610948565b94506020860135915080821115610a4057600080fd5b50610a4d86828701610948565b925050610a5c604085016109d5565b90509250925092565b600060208284031215610a7757600080fd5b610a80826109d5565b9392505050565b60008060408385031215610a9a57600080fd5b610aa3836109d5565b946020939093013593505050565b6000815180845260005b81811015610ad757602081850181015186830182015201610abb565b81811115610ae9576000602083870101525b50601f01601f19169290920160200192915050565b86815285602082015284604082015260c060608201526000610b2360c0830186610ab1565b93151560808301525090151560a090910152949350505050565b608081526000610b506080830187610ab1565b8281036020840152610b628187610ab1565b604084019590955250506001600160a01b039190911660609091015292915050565b6020808252602e908201527f496e697469616c697a61626c653a20636f6e747261637420697320616c72656160408201526d191e481a5b9a5d1a585b1a5e995960921b606082015260800190565b60208082526025908201527f63616e206f6e6c792062652063616c6c6564206279207468652070726f78792060408201526430b236b4b760d91b606082015260800190565b600181811c90821680610c2b57607f821691505b60208210811415610c4c57634e487b7160e01b600052602260045260246000fd5b5091905056fea2646970667358221220316484f112c55ae8c5c9466f2c1ae6586f6836f42f60fe0742ee263657490fc764736f6c634300080b0033",
  "devdoc": {
    "kind": "dev",
    "methods": {},
    "version": 1
  },
  "userdoc": {
    "kind": "user",
    "methods": {},
    "version": 1
  },
  "storageLayout": {
    "storage": [
      {
        "astId": 413,
        "contract": "contracts/MetisAgent/MetisBridgeAgentProxy.sol:MetisBridgeAgentProxy",
        "label": "_initialized",
        "offset": 0,
        "slot": "0",
        "type": "t_bool"
      },
      {
        "astId": 416,
        "contract": "contracts/MetisAgent/MetisBridgeAgentProxy.sol:MetisBridgeAgentProxy",
        "label": "_initializing",
        "offset": 1,
        "slot": "0",
        "type": "t_bool"
      },
      {
        "astId": 1641,
        "contract": "contracts/MetisAgent/MetisBridgeAgentProxy.sol:MetisBridgeAgentProxy",
        "label": "__gap",
        "offset": 0,
        "slot": "1",
        "type": "t_array(t_uint256)50_storage"
      },
      {
        "astId": 3226,
        "contract": "contracts/MetisAgent/MetisBridgeAgentProxy.sol:MetisBridgeAgentProxy",
        "label": "metisBridgeAgentImpl",
        "offset": 0,
        "slot": "51",
        "type": "t_address"
      },
      {
        "astId": 3228,
        "contract": "contracts/MetisAgent/MetisBridgeAgentProxy.sol:MetisBridgeAgentProxy",
        "label": "proxyAdmin",
        "offset": 0,
        "slot": "52",
        "type": "t_address"
      },
      {
        "astId": 3230,
        "contract": "contracts/MetisAgent/MetisBridgeAgentProxy.sol:MetisBridgeAgentProxy",
        "label": "peggedTotemTokenProxy",
        "offset": 0,
        "slot": "53",
        "type": "t_address"
      },
      {
        "astId": 3232,
        "contract": "contracts/MetisAgent/MetisBridgeAgentProxy.sol:MetisBridgeAgentProxy",
        "label": "owner",
        "offset": 0,
        "slot": "54",
        "type": "t_address_payable"
      },
      {
        "astId": 3234,
        "contract": "contracts/MetisAgent/MetisBridgeAgentProxy.sol:MetisBridgeAgentProxy",
        "label": "upgradeEnabled",
        "offset": 20,
        "slot": "54",
        "type": "t_bool"
      },
      {
        "astId": 3237,
        "contract": "contracts/MetisAgent/MetisBridgeAgentProxy.sol:MetisBridgeAgentProxy",
        "label": "domain",
        "offset": 0,
        "slot": "55",
        "type": "t_struct(DomainSeparator)4020_storage"
      },
      {
        "astId": 3241,
        "contract": "contracts/MetisAgent/MetisBridgeAgentProxy.sol:MetisBridgeAgentProxy",
        "label": "swapNonce",
        "offset": 0,
        "slot": "59",
        "type": "t_mapping(t_address,t_uint256)"
      },
      {
        "astId": 3249,
        "contract": "contracts/MetisAgent/MetisBridgeAgentProxy.sol:MetisBridgeAgentProxy",
        "label": "swapDataMap",
        "offset": 0,
        "slot": "60",
        "type": "t_mapping(t_address,t_mapping(t_bytes32,t_struct(SwapData)3224_storage))"
      }
    ],
    "types": {
      "t_address": {
        "encoding": "inplace",
        "label": "address",
        "numberOfBytes": "20"
      },
      "t_address_payable": {
        "encoding": "inplace",
        "label": "address payable",
        "numberOfBytes": "20"
      },
      "t_array(t_uint256)50_storage": {
        "base": "t_uint256",
        "encoding": "inplace",
        "label": "uint256[50]",
        "numberOfBytes": "1600"
      },
      "t_bool": {
        "encoding": "inplace",
        "label": "bool",
        "numberOfBytes": "1"
      },
      "t_bytes32": {
        "encoding": "inplace",
        "label": "bytes32",
        "numberOfBytes": "32"
      },
      "t_mapping(t_address,t_mapping(t_bytes32,t_struct(SwapData)3224_storage))": {
        "encoding": "mapping",
        "key": "t_address",
        "label": "mapping(address => mapping(bytes32 => struct MetisBridgeAgentStorageStructure.SwapData))",
        "numberOfBytes": "32",
        "value": "t_mapping(t_bytes32,t_struct(SwapData)3224_storage)"
      },
      "t_mapping(t_address,t_uint256)": {
        "encoding": "mapping",
        "key": "t_address",
        "label": "mapping(address => uint256)",
        "numberOfBytes": "32",
        "value": "t_uint256"
      },
      "t_mapping(t_bytes32,t_struct(SwapData)3224_storage)": {
        "encoding": "mapping",
        "key": "t_bytes32",
        "label": "mapping(bytes32 => struct MetisBridgeAgentStorageStructure.SwapData)",
        "numberOfBytes": "32",
        "value": "t_struct(SwapData)3224_storage"
      },
      "t_string_storage": {
        "encoding": "bytes",
        "label": "string",
        "numberOfBytes": "32"
      },
      "t_struct(DomainSeparator)4020_storage": {
        "encoding": "inplace",
        "label": "struct IMessageStructure.DomainSeparator",
        "members": [
          {
            "astId": 4013,
            "contract": "contracts/MetisAgent/MetisBridgeAgentProxy.sol:MetisBridgeAgentProxy",
            "label": "name",
            "offset": 0,
            "slot": "0",
            "type": "t_string_storage"
          },
          {
            "astId": 4015,
            "contract": "contracts/MetisAgent/MetisBridgeAgentProxy.sol:MetisBridgeAgentProxy",
            "label": "version",
            "offset": 0,
            "slot": "1",
            "type": "t_string_storage"
          },
          {
            "astId": 4017,
            "contract": "contracts/MetisAgent/MetisBridgeAgentProxy.sol:MetisBridgeAgentProxy",
            "label": "chainId",
            "offset": 0,
            "slot": "2",
            "type": "t_uint256"
          },
          {
            "astId": 4019,
            "contract": "contracts/MetisAgent/MetisBridgeAgentProxy.sol:MetisBridgeAgentProxy",
            "label": "verifyingContract",
            "offset": 0,
            "slot": "3",
            "type": "t_address"
          }
        ],
        "numberOfBytes": "128"
      },
      "t_struct(SwapData)3224_storage": {
        "encoding": "inplace",
        "label": "struct MetisBridgeAgentStorageStructure.SwapData",
        "members": [
          {
            "astId": 3213,
            "contract": "contracts/MetisAgent/MetisBridgeAgentProxy.sol:MetisBridgeAgentProxy",
            "label": "txHash",
            "offset": 0,
            "slot": "0",
            "type": "t_bytes32"
          },
          {
            "astId": 3215,
            "contract": "contracts/MetisAgent/MetisBridgeAgentProxy.sol:MetisBridgeAgentProxy",
            "label": "nonce",
            "offset": 0,
            "slot": "1",
            "type": "t_uint256"
          },
          {
            "astId": 3217,
            "contract": "contracts/MetisAgent/MetisBridgeAgentProxy.sol:MetisBridgeAgentProxy",
            "label": "exchange",
            "offset": 0,
            "slot": "2",
            "type": "t_uint256"
          },
          {
            "astId": 3219,
            "contract": "contracts/MetisAgent/MetisBridgeAgentProxy.sol:MetisBridgeAgentProxy",
            "label": "swapType",
            "offset": 0,
            "slot": "3",
            "type": "t_string_storage"
          },
          {
            "astId": 3221,
            "contract": "contracts/MetisAgent/MetisBridgeAgentProxy.sol:MetisBridgeAgentProxy",
            "label": "isFilled",
            "offset": 0,
            "slot": "4",
            "type": "t_bool"
          },
          {
            "astId": 3223,
            "contract": "contracts/MetisAgent/MetisBridgeAgentProxy.sol:MetisBridgeAgentProxy",
            "label": "isClaimed",
            "offset": 1,
            "slot": "4",
            "type": "t_bool"
          }
        ],
        "numberOfBytes": "160"
      },
      "t_uint256": {
        "encoding": "inplace",
        "label": "uint256",
        "numberOfBytes": "32"
      }
    }
  }
}